:100000000C9461000C947E000C947E000C947E0095
:100010000C947E000C947E000C947E000C947E0068
:100020000C947E000C947E000C947E000C947E0058
:100030000C947E000C947E000C947E000C947E0048
:100040000C94A3010C947E000C947E000C947E0012
:100050000C947E000C947E000C947E000C947E0028
:100060000C947E000C947E00000000002400270009
:100070002A0000000000250028002B0000000000DE
:1000800023002600290004040404040404040202DA
:100090000202020203030303030301020408102007
:1000A0004080010204081020010204081020000012
:1000B0000008000201000003040700000000000027
:1000C000000011241FBECFEFD8E0DEBFCDBF11E08E
:1000D000A0E0B1E0E4E3F7E002C005900D92A030AB
:1000E000B107D9F721E0A0E0B1E001C01D92A13134
:1000F000B207E1F70E94ED010C9498030C94000004
:10010000833081F028F4813099F08230A9F008958D
:100110008730A9F08830C9F08430B1F48091800034
:100120008F7D03C0809180008F7780938000089539
:1001300084B58F7784BD089584B58F7DFBCF809182
:10014000B0008F778093B00008958091B0008F7DCC
:10015000F9CFCF93DF93282F30E0F901E255FF4F1D
:100160008491F901E656FF4FD491F901EA57FF4F08
:10017000C491CC23A1F081110E948000EC2FF0E00B
:10018000EE0FFF1FE458FF4FA591B491EC91ED23C2
:1001900081E090E009F480E0DF91CF91089580E064
:1001A00090E0FACF1F93CF93DF93282F30E0F9012F
:1001B000E255FF4F8491F901E656FF4FD491F901C2
:1001C000EA57FF4FC491CC23A9F0162F81110E944A
:1001D0008000EC2FF0E0EE0FFF1FEE58FF4FA591CF
:1001E000B4918FB7F894EC91111108C0D095DE232B
:1001F000DC938FBFDF91CF911F910895DE2BF8CF55
:10020000CF93DF9390E0FC01E656FF4F24918A578D
:100210009F4FFC0184918823D1F090E0880F991FB3
:10022000FC01E859FF4FA591B491FC01EE58FF4F36
:10023000C591D49161110EC09FB7F8948C91E22FB3
:10024000E0958E238C932881E223E8839FBFDF9182
:10025000CF9108958FB7F894EC91E22BEC938FBF78
:10026000F6CF1F93CF93DF93182FEB0161E00E942D
:100270000001209739F460E0812FDF91CF911F9129
:100280000C94D200CF3FD10511F461E0F5CFE12FFE
:10029000F0E0E255FF4FE491E33031F140F4E1301A
:1002A000B1F0E230E1F0C038D1057CF7E4CFE730BF
:1002B00029F1E83059F1E430B1F780918000806293
:1002C00080938000D0938B00C0938A0004C084B5D3
:1002D000806884BDC7BDDF91CF911F91089584B51B
:1002E000806284BDC8BDF7CF809180008068809314
:1002F0008000D0938900C0938800EDCF8091B0003A
:1003000080688093B000C093B300E5CF8091B000C7
:1003100080628093B000C093B400DDCF8E3008F0CF
:100320008E508770806480937C0080917A00806416
:1003300080937A0080917A0086FDFCCF80917800CE
:100340009091790008951F920F920FB60F92112489
:100350002F933F938F939F93AF93BF9380910D0102
:1003600090910E01A0910F01B091100130910C01FC
:1003700023E0230F2D3758F50196A11DB11D2093C1
:100380000C0180930D0190930E01A0930F01B09387
:1003900010018091080190910901A0910A01B0918A
:1003A0000B010196A11DB11D8093080190930901D5
:1003B000A0930A01B0930B01BF91AF919F918F91D0
:1003C0003F912F910F900FBE0F901F90189526E828
:1003D000230F0296A11DB11DD2CF789484B58260FF
:1003E00084BD84B5816084BD85B5826085BD85B5D9
:1003F000816085BD80916E00816080936E00109257
:1004000081008091810082608093810080918100D1
:100410008160809381008091800081608093800062
:100420008091B10084608093B1008091B0008160C0
:100430008093B00080917A00846080937A008091EC
:100440007A00826080937A0080917A008160809344
:100450007A0080917A00806880937A001092C100BF
:1004600061E086E00E94000161E085E00E940001F9
:1004700061E084E00E94000161E083E00E940001ED
:1004800061E081E00E94000161E080E00E940001E3
:1004900060E08EE00E94000160E08FE00E940001B9
:1004A00060E080E10E94000160E081E10E940001C3
:1004B00060E082E10E94000160E083E10E940001AF
:1004C00082E10E948E0183E10E948E018EEFC82E90
:1004D00083E0D82EE12CF12CC0E0D0E082E10E9434
:1004E0008E014C01909307018093060183E10E94E5
:1004F0008E015C0190930501809304012FEF30E0A1
:10050000D4010E949103A70196010E944103290191
:1005100030930301209302012FEF30E0D5010E94B8
:100520009103A70196010E94410349013093010103
:1005300020930001B2018AE00E943101B40189E0F8
:100540000E9431018EE00E94A900019739F48FE0EA
:100550000E94A90061E0892B09F464C08EE00E942A
:10056000A900892B09F442C08EE00E94A9000197DE
:1005700009F04CC08FE00E94A900019709F046C025
:1005800060E086E00E94D20060E085E00E94D20038
:1005900061E081E00E94D20080E10E94A900019701
:1005A00009F445C080E10E94A900892B09F44BC0E1
:1005B00080E10E94A900019709F055C081E10E94E5
:1005C000A900019709F04FC060E084E00E94D200CA
:1005D00060E083E00E94D20061E080E00E94D200EF
:1005E000209709F47BCF0E94000078CF8FE00E9413
:1005F000A900019709F0B8CF60E086E00E94D20020
:1006000061E085E00E94D20060E0C3CF8EE00E94EE
:10061000A900892B09F68FE00E94A900892B09F017
:10062000BBCF60E086E00E94D20060E0EACF81E1CB
:100630000E94A900892B09F0B5CF61E084E00E94F7
:10064000D20060E00BC081E10E94A900019709F08F
:10065000AFCF60E084E00E94D20061E083E00E94BE
:10066000D20060E0BACF80E10E94A900892B09F096
:10067000B7CF81E10E94A900892B09F0B1CF60E0DA
:10068000DDCF052E97FB1EF400940E94580357FD02
:1006900007D00E94600307FC03D04EF40C9458036B
:1006A00050954095309521953F4F4F4F5F4F08959E
:1006B00090958095709561957F4F8F4F9F4F0895CE
:1006C000A1E21A2EAA1BBB1BFD010DC0AA1FBB1F56
:1006D000EE1FFF1FA217B307E407F50720F0A21BC8
:1006E000B30BE40BF50B661F771F881F991F1A9435
:1006F00069F760957095809590959B01AC01BD015F
:10070000CF010895A29FB001B39FC001A39F700DB8
:10071000811D1124911DB29F700D811D1124911D09
:1007200008950E948203B7FF0895821B930B0895DA
:04073000F894FFCF6B
:107E0000112484B714BE81FFF0D085E080938100F7
:107E100082E08093C00088E18093C10086E0809377
:107E2000C20080E18093C4008EE0C9D0259A86E02C
:107E300020E33CEF91E0309385002093840096BBD3
:107E4000B09BFECF1D9AA8958150A9F7CC24DD24C4
:107E500088248394B5E0AB2EA1E19A2EF3E0BF2EE7
:107E6000A2D0813461F49FD0082FAFD0023811F036
:107E7000013811F484E001C083E08DD089C08234E0
:107E800011F484E103C0853419F485E0A6D080C0E4
:107E9000853579F488D0E82EFF2485D0082F10E0AE
:107EA000102F00270E291F29000F111F8ED06801E7
:107EB0006FC0863521F484E090D080E0DECF843638
:107EC00009F040C070D06FD0082F6DD080E0C81688
:107ED00080E7D80618F4F601B7BEE895C0E0D1E017
:107EE00062D089930C17E1F7F0E0CF16F0E7DF06D8
:107EF00018F0F601B7BEE89568D007B600FCFDCFD4
:107F0000A601A0E0B1E02C9130E011968C91119780
:107F100090E0982F8827822B932B1296FA010C0160
:107F200087BEE89511244E5F5F4FF1E0A038BF0790
:107F300051F7F601A7BEE89507B600FCFDCF97BE46
:107F4000E89526C08437B1F42ED02DD0F82E2BD052
:107F50003CD0F601EF2C8F010F5F1F4F84911BD097
:107F6000EA94F801C1F70894C11CD11CFA94CF0C13
:107F7000D11C0EC0853739F428D08EE10CD085E9AC
:107F80000AD08FE07ACF813511F488E018D01DD067
:107F900080E101D065CF982F8091C00085FFFCCF94
:107FA0009093C60008958091C00087FFFCCF809118
:107FB000C00084FD01C0A8958091C6000895E0E648
:107FC000F0E098E1908380830895EDDF803219F02E
:107FD00088E0F5DFFFCF84E1DECF1F93182FE3DFCA
:107FE0001150E9F7F2DF1F91089580E0E8DFEE27F6
:047FF000FF270994CA
:027FFE00040479
:0400000300007E007B
:00000001FF
